:060000000A128A11122809
:10000800FE000308F0000408F1000A08F200831259
:1000180003137F08F3000A128A11612D0A128A114C
:100028007B2C00308A000408840A820700342034BC
:1000380043347934743472346F346E3420340A346F
:100048002034203454346534633468340034203424
:1000580075347334653420340A344A346F3479344F
:100068004C344A346F3479345234003420345034A8
:10007800523445345334533420340A3420345334FE
:10008800543441345234543400347234693467344B
:100098006834743420340034733474346F347034F6
:1000A8002034003466346F347234773420340034AA
:1000B8002B342B342B34203400342D342D342D3470
:1000C8002034003464346F3477346E3400346C3444
:1000D800653466347434003403100030031801307A
:1000E80083120313BE000A128A114A250A128A11C2
:1000F8000A128A1130250A128A110030831203135A
:10010800BA000230BB000A128A11BC240A128A11F2
:10011800003083120313BA000230BB000A128A119E
:100128009D240A128A110A128A11F8240A128A11C5
:100138000A128A118B250A128A110A128A119D2520
:100148000A128A110A128A1178250A128A110A12C9
:100158008A119C230A128A1101300A128A11C025B9
:100168000A128A1102300A128A1156240A128A11B6
:1001780020300A128A11C0250A128A11C428C428FC
:1001880003300A128A11DF250A128A11013A03196B
:10019800CE28CF28C428D02811300A128A11C025A9
:1001A8000A128A11003083120313AC000030AD002C
:1001B800DD2813300A128A11DF250A128A118312E8
:1001C8000313BC0032303C020318EB28EC281D292D
:1001D80042300A128A11C0250A128A11F428F4281A
:1001E80013300A128A11DF250A128A1183120313A7
:1001F800BC0032303C02031C02290329F4280429DC
:1002080001302D06031D0A29F4302C06031D0D2983
:100218000E291329E830AC000330AD00DD282C0886
:10022800643EAC002D080318013E003EAD00DD28F9
:10023800DD2813300A128A11DF250A128A11831267
:100248000313BC00C9303C02031C2B292C29592953
:1002580047300A128A11C0250A128A113429342912
:1002680013300A128A11DF250A128A118312031326
:10027800BC00C9303C0203184229432934294429C7
:100288002D082C04031D49294A294F290030AC00A8
:100298000030AD00DD282C089C3EAC002D0803186A
:1002A800013EFF3EAD00DD28DD2804300A128A1128
:1002B800DF250A128A110038031D63296429892958
:1002C8003C300A128A11C0250A128A1183120313BC
:1002D8002C08003EBA002D080318013E023EBB0060
:1002E8000A128A11BC240A128A11831203132C08D9
:1002F800003EBA002D080318013E023EBB000A1258
:100308008A119D240A128A11DD2805300A128A11E1
:10031800DF250A128A110038031D93299429CA2956
:100328002F300A128A11C0250A128A118312031368
:100338002C08003EBA002D080318013E023EBB00FF
:100348000A128A11BC240A128A110230831203137A
:10035800B2000030B3002D08B501B5072C08B40170
:10036800B4070A128A1121230A128A11831203136D
:100378003208003EBA0033080318013E023EBB00B3
:100388000A128A119D240A128A11DD2806300A12DF
:100398008A11DF250A128A110038031DD429D529AC
:1003A800082A4C300A128A11C0250A128A118312AF
:1003B80003132C09BC002D09BD00BC0A0319BD0A92
:1003C8003C08003EBA003D080318013E023EBB004F
:1003D8000A128A11BC240A128A11831203132C09E7
:1003E800BC002D09BD00BC0A0319BD0A3C08003E2B
:1003F800BA003D080318013E023EBB000A128A11EA
:100408009D240A128A11DD2807300A128A11DF2575
:100418000A128A110038031D122A132A492A513058
:100428000A128A11C0250A128A1102308312031394
:10043800B2000030B3002D08B501B5072C08B4018F
:10044800B4070A128A1121230A128A11831203138C
:100458003208003EBA0033080318013E023EBB00D2
:100468000A128A11BC240A128A11831203132C0857
:10047800003EBA002D080318013E023EBB000A12D6
:100488008A119D240A128A11DD2836300A128A112F
:10049800C0250A128A11003083120313BA000230F1
:1004A800BB000A128A11BC240A128A110030831276
:1004B8000313BA000230BB000A128A119D240A12E3
:1004C8008A11DD28DD28DD28DD28DD28DD28DD2866
:1004D800DD286E2A6E2A0A128A1112288312031343
:1004E800B5000310003003180130B4000808B2004A
:1004F8003208B4007908013A031D832A842AED2AB8
:1005080035080A128A11F9250A128A117508F03974
:100518000A128A1136260A128A1100300A128A1122
:1005280005260A128A110D3083120313B300FB301B
:10053800B200B20B9D2AB30B9D2AA22A01300A12DF
:100548008A1105260A128A11073083120313B30091
:100558007D30B200B20BAE2AB30BAE2A831203135E
:1005680035080A128A11F9250A128A1175088312A8
:100578000313B20003300310B20DFF3E031DBF2A60
:100588000310320D0A128A1136260A128A11003017
:100598000A128A1105260A128A110D3083120313D2
:1005A800B300FB30B200B20BD72AB30BD72ADC2A30
:1005B80001300A128A1105260A128A11073083129D
:1005C8000313B3007D30B200B20BE82AB30BE82A5C
:1005D8001C2B8312031335080A128A11F9250A12F3
:1005E8008A1175080A128A1136260A128A110030F1
:1005F8000A128A1105260A128A110D308312031372
:10060800B300FB30B200B20B072BB30B072B0C2B3C
:1006180001300A128A1105260A128A11073083123C
:100628000313B3007D30B200B20B182BB30B182B99
:1006380083120313340888000800031000300318DD
:10064800013083120313B700B31F2B2B2C2B352B30
:10065800B209B309B20A0319B30AB7010314B70DF3
:10066800352BB51F382B392B422BB409B509B40AE1
:100678000319B50A0130F4007408B7060030B80051
:100688000030B9003308320403194B2B4C2B8A2B4A
:10069800B6010314B60D5C2B01300310B20DB30D77
:1006A800FF3E031D512B0130F4007408B6075C2B84
:1006B800B31F5F2B602B502B622B622B0130031072
:1006C800B80DB90DFF3E031D632B33083502031D1A
:1006D8006F2B32083402031C722B732B7B2B3208CE
:1006E800B4023308031CB503B50238147B2B013060
:1006F8000310B30CB20CFF3E031D7C2B0130B60275
:10070800031D872B882B622B8A2B8A2B3708031D06
:100718008E2B942BB809B909B80A0319B90A942B76
:100728003908B301B3073808B201B2079B2B080098
:1007380001300A128A1105260A128A1162308312C0
:100748000313B7006530B600B60BA82BB70BA82B60
:10075800AD2B0310003003180130F9003830831234
:100768000313B6003608F50000300A128A11722207
:100778000A128A11383083120313B6003608F500BE
:1007880000300A128A1172220A128A113830831232
:100798000313B6003608F50000300A128A117222D7
:1007A8000A128A11283083120313B6003608F5009E
:1007B80000300A128A1172220A128A11F9010314EE
:1007C800F90D283083120313B6003608F5000030FF
:1007D8000A128A1172220A128A110630831203132E
:1007E800B6003608F50000300A128A1172220A1281
:1007F8008A110C3083120313B6003608F500003056
:100808000A128A1172220A128A110A128A111C26E5
:100818000A128A11080083120313B800482C3808FA
:1008280084000A128A1115200A128A110A3A031939
:100838001E2C1F2C2C2C380884000A128A11152013
:100848000A128A110D3A031D2A2C2B2C322C2C2C1F
:100858000A128A1111260A128A11412C83120313D3
:10086800380884000A128A1115200A128A110A12FD
:100878008A11D1250A128A11412C013083120313DF
:10088800B7003708B807482C380884000A128A11BC
:1008980015200A128A110038031D532C542C132CCE
:1008A800552C0800F600712C83120313861732307A
:1008B800F4000030F5000A128A11DB240A128A11AA
:1008C8008312031386133230F4000030F5000A1245
:1008D8008A11DB240A128A11712C0130F60276087B
:1008E800FF3A031D782C792C582C7A2C0800F70134
:1008F800F80183132030840032300A128A112E2620
:100908000A128A114730FD000630FE002630FF002B
:100918003F3084000A128A11B3250A128A110A127A
:100928008A1143260A128A11F90083010A128A11D0
:100938007028831203133A08F50004300310F50DEC
:10094800FF3E031DA22C30307505F6001D08CF3977
:1009580076049D003B08F6003A08F50002300310C3
:10096800F60CF50CFF3E031DB32C75089B00080020
:10097800831203133A08F50004300310F50DFF3E07
:10098800031DC12C30307505F6001708CF397604E1
:1009980097003B08F6003A08F50002300310F60C01
:1009A800F50CFF3E031DD22C750895000800E62CB7
:1009B800073083120313B3007D30B200B20BE22C70
:1009C800B30BE22C0130F4020030031CF503F502EE
:1009D800FF307506031DF22CFF307406031DF52C3D
:1009E800F62CDC2CF72C0800831203139F171F1317
:1009F8008316031708148810081188110812881222
:100A0800081388130910891009118911091289120C
:100A1800831603139F179F121F12831203131F10AD
:100A280008000310003003180130F5008312031387
:100A3800981C1F2D202D282D181218161A08F4009E
:100A48007408F500282D282D8C1E2B2D2C2D282DD3
:100A58002D2D1A082F2D0800FF308316031392003E
:100A6800831203139210121495019B011215971308
:100A780017139712171297151715971017109D121D
:100A88001D129D151D159D101D10080083160313BA
:100A98000F178F160F16831203138501860187011E
:100AA80088018901BF308316031385003F30860013
:100AB800813087008801890108000C1C642D652D90
:100AC8006B2D0A128A113E260A128A116B2D7308A1
:100AD80083120313FF0072088A00710884007008EB
:100AE8008300FE0E7E0E0900831203138E018F0110
:100AF800901190141012901210110C1083160313F9
:100B08000C140B178B17831203131014080083128D
:100B180003138711880187150530F4000030F500AC
:100B28000A128A11DB240A128A118312031387110D
:100B38000800831603178711831603139A011815E3
:100B4800813099008312031398171816831603131C
:100B58009816181208007E088A007F088200AF25C0
:100B68000A128A118000840A04087D0603190034D9
:100B7800FF0A0319FE0AB32D83120313B9000A12E0
:100B88008A111C260A128A118312031339080A12C1
:100B98008A110F240A128A11080083120313B6005F
:100BA8003608F6007608F50001300A128A1172221A
:100BB8000A128A110800F60076080A128A11ED2531
:100BC8000A128A110A128A1115250A128A11EC2DA5
:100BD8000800F400EF2D831203130C1EF42DF52DDD
:100BE800EF2DF62D740899000800F4007418FD2DF7
:100BF800012E831203130814042E83120313081002
:100C08000800F4007418092E0D2E83120313091519
:100C1800102E8312031309110800C030F60076085D
:100C2800F50000300A128A1172220A128A1108008D
:100C3800F5010314F50D00300A128A1172220A1206
:100C48008A11080050346134733473346534643461
:100C58002134003464008001840A04060319003436
:100C680004062F2EF4008312031308080F397404A6
:100C780088000800831203130C108617080001343B
:02400E00E22CA2
:00000001FF
