:060000000A128A11122809
:10000800FE000308F0000408F1000A08F200831259
:1000180003137F08F3000A128A11552D0A128A1158
:100028006F2C00308A000408840A820700342034C8
:1000380043347934743472346F346E3420340A346F
:100048002034203454346534633468340034203424
:1000580075347334653420340A344A346F3479344F
:100068004C344A346F3479345234003420345034A8
:10007800523445345334533420340A3420345334FE
:10008800543441345234543400347234693467344B
:100098006834743420340034733474346F347034F6
:1000A8002034003466346F347234773420340034AA
:1000B8002B342B342B34203400342D342D342D3470
:1000C8002034003464346F3477346E3400346C3444
:1000D800653466347434003403100030031801307A
:1000E80083120313BE000A128A113E250A128A11CE
:1000F8000A128A1124250A128A1100308312031366
:10010800BA000230BB000A128A11B0240A128A11FE
:100118000030F4000230F5000A128A1191240A1204
:100128008A110A128A11EC240A128A110A128A11F7
:100138007F250A128A110A128A1191250A128A1138
:100148000A128A116C250A128A110A128A1190233E
:100158000A128A1101300A128A11B4250A128A1168
:1001680002300A128A114A240A128A1120300A120D
:100178008A11B4250A128A11C228C22803300A1229
:100188008A11D3250A128A11013A0319CC28CD28DD
:10019800C228CE2811300A128A11B4250A128A11EF
:1001A800003083120313AC000030AD00DB2813309D
:1001B8000A128A11D3250A128A1183120313BC006A
:1001C80032303C020318E928EA281B2942300A1277
:1001D8008A11B4250A128A11F228F22813300A1259
:1001E8008A11D3250A128A1183120313BC003230F4
:1001F8003C02031C00290129F228022901302D069E
:10020800031D0829F4302C06031D0B290C2911297C
:10021800F430AC000130AD00DB282C08643EAC00A3
:100228002D080318013E003EAD00DB28DB28133003
:100238000A128A11D3250A128A1183120313BC00E9
:10024800C9303C02031C29292A29572947300A1298
:100258008A11B4250A128A113229322913300A1256
:100268008A11D3250A128A1183120313BC00C930DC
:100278003C02031840294129322942292D082C041F
:10028800031D472948294D290030AC000030AD0036
:10029800DB282C089C3EAC002D080318013EFF3ECD
:1002A800AD00DB28DB2804300A128A11D3250A1294
:1002B8008A110038031D6129622983293C300A12FA
:1002C8008A11B4250A128A11003083120313BA0066
:1002D8000230BB000A128A11B0240A128A11831252
:1002E80003132C08003EF4002D080318013E023EBB
:1002F800F5000A128A1191240A128A11DB280630A5
:100308000A128A11D3250A128A110038031D8D2971
:100318008E29B6294C300A128A11B4250A128A117C
:10032800003083120313BA000230BB000A128A118C
:10033800B0240A128A11831203132C09BC002D0958
:10034800BD00BC0A0319BD0A3C08003EF4003D0884
:100358000318013E023EF5000A128A1191240A127E
:100368008A11DB2805300A128A11D3250A128A114C
:100378000038031DC029C129F7292F300A128A1114
:10038800B4250A128A11023083120313B200003016
:10039800B3002D08B501B5072C08B401B4070A123B
:1003A8008A1115230A128A11831203133208003E98
:1003B800BA0033080318013E023EBB000A128A1134
:1003C800B0240A128A11831203132C08003EF40089
:1003D8002D080318013E023EF5000A128A119124E5
:1003E8000A128A11DB2807300A128A11D3250A1249
:1003F8008A110038031D012A022A3F2A51300A12A5
:100408008A11B4250A128A11023083120313B2002A
:100418000030B3002D08B501B5072C08B401B407A6
:100428000A128A1115230A128A1183120313320938
:10043800BC003309BD00BC0A0319BD0A3C08003ED4
:10044800BA003D080318013E023EBB000A128A1199
:10045800B0240A128A11831203132C08003EF400F8
:100468002D080318013E023EF5000A128A11912454
:100478000A128A11DB2836300A128A11B4250A12A8
:100488008A11003083120313BA000230BB000A122B
:100498008A11B0240A128A110030F4000230F500E3
:1004A8000A128A1191240A128A11DB28DB28DB2818
:1004B800DB28DB28DB28DB28DB28622A622A0A12F1
:1004C8008A11122883120313B50003100030031891
:1004D8000130B4000808B2003208B4007908013AC3
:1004E800031D772A782AE12A35080A128A11ED2590
:1004F8000A128A117508F0390A128A112A260A1274
:100508008A1100300A128A11F9250A128A110D304F
:1005180083120313B300FB30B200B20B912AB30B62
:10052800912A962A01300A128A11F9250A128A118B
:10053800073083120313B3007D30B200B20BA22A36
:10054800B30BA22A8312031335080A128A11ED2568
:100558000A128A11750883120313B20003300310BC
:10056800B20DFF3E031DB32A0310320D0A128A1181
:100578002A260A128A1100300A128A11F9250A124B
:100588008A110D3083120313B300FB30B200B20B93
:10059800CB2AB30BCB2AD02A01300A128A11F925AB
:1005A8000A128A11073083120313B3007D30B20098
:1005B800B20BDC2AB30BDC2A102B83120313350889
:1005C8000A128A11ED250A128A1175080A128A116F
:1005D8002A260A128A1100300A128A11F9250A12EB
:1005E8008A110D3083120313B300FB30B200B20B33
:1005F800FB2AB30BFB2A002B01300A128A11F925BA
:100608000A128A11073083120313B3007D30B20037
:10061800B20B0C2BB30B0C2B83120313340888007A
:100628000800031000300318013083120313B700C9
:10063800B31F1F2B202B292BB209B309B20A0319A8
:10064800B30AB7010314B70D292BB51F2C2B2D2B7B
:10065800362BB409B509B40A0319B50A0130F400F8
:100668007408B7060030B8000030B9003308320407
:1006780003193F2B402B7E2BB6010314B60D502BCC
:1006880001300310B20DB30DFF3E031D452B0130A1
:10069800F4007408B607502BB31F532B542B442B6C
:1006A800562B562B01300310B80DB90DFF3E031D14
:1006B800572B33083502031D632B32083402031C01
:1006C800662B672B6F2B3208B4023308031CB50363
:1006D800B50238146F2B01300310B30CB20CFF3E77
:1006E800031D702B0130B602031D7B2B7C2B562B70
:1006F8007E2B7E2B3708031D822B882BB809B9095E
:10070800B80A0319B90A882B3908B301B30738089E
:10071800B201B2078F2B080001300A128A11F9259D
:100728000A128A11623083120313B7006530B600CB
:10073800B60B9C2BB70B9C2BA12B03100030031876
:100748000130F900383083120313B6003608F5007B
:1007580000300A128A1166220A128A11383083126E
:100768000313B6003608F50000300A128A11662213
:100778000A128A11383083120313B6003608F500BE
:1007880000300A128A1166220A128A11283083124E
:100798000313B6003608F50000300A128A116622E3
:1007A8000A128A11F9010314F90D28308312031370
:1007B800B6003608F50000300A128A1166220A12BD
:1007C8008A11063083120313B6003608F50000308C
:1007D8000A128A1166220A128A110C308312031334
:1007E800B6003608F50000300A128A1166220A128D
:1007F8008A110A128A1110260A128A110800831215
:100808000313B8003C2C380884000A128A111520FA
:100818000A128A110A3A0319122C132C202C3808B0
:1008280084000A128A1115200A128A110D3A031D32
:100838001E2C1F2C262C202C0A128A1105260A127F
:100848008A11352C83120313380884000A128A117E
:1008580015200A128A110A128A11C5250A128A114C
:10086800352C013083120313B7003708B8073C2C26
:10087800380884000A128A1115200A128A110038D1
:10088800031D472C482C072C492C0800F600652C22
:100898008312031386173230F4000030F5000A1271
:1008A8008A11CF240A128A11831203138613323055
:1008B800F4000030F5000A128A11CF240A128A11B6
:1008C800652C0130F6027608FF3A031D6C2C6D2C5E
:1008D8004C2C6E2C0800F701F8018313203084009B
:1008E80032300A128A1122260A128A114730FD0074
:1008F8000630FE001A30FF003F3084000A128A11C9
:10090800A7250A128A110A128A1137260A128A1191
:10091800F90083010A128A117028740883120313DC
:10092800B20004300310B20DFF3E031D962C303088
:100938003205B3001D08CF3933049D007508B30094
:100948007408B20002300310B30CB20CFF3E031D52
:10095800A72C32089B000800831203133A08F500FD
:1009680004300310F50DFF3E031DB52C303075051E
:10097800F6001708CF39760497003B08F6003A08C6
:10098800F50002300310F60CF50CFF3E031DC62CD3
:10099800750895000800DA2C073083120313B3009A
:1009A8007D30B200B20BD62CB30BD62C0130F4023A
:1009B8000030031CF503F502FF307506031DE62C15
:1009C800FF307406031DE92CEA2CD02CEB2C080010
:1009D800831203139F171F13831603170814881015
:1009E8000811881108128812081388130910891031
:1009F8000911891109128912831603139F179F126F
:100A08001F12831203131F1008000310003003186D
:100A18000130F50083120313981C132D142D1C2D7F
:100A2800181218161A08F4007408F5001C2D1C2D4D
:100A38008C1E1F2D202D1C2D212D1A08232D08005A
:100A4800FF308316031392008312031392101214BB
:100A580095019B01121597131713971217129715E3
:100A68001715971017109D121D129D151D159D1015
:100A78001D100800831603130F178F160F16831205
:100A8800031385018601870188018901BF30831618
:100A9800031385003F308600813087008801890173
:100AA80008000C1C582D592D5F2D0A128A11322668
:100AB8000A128A115F2D730883120313FF0072084C
:100AC8008A007108840070088300FE0E7E0E0900FB
:100AD800831203138E018F0190119014101290123B
:100AE80010110C10831603130C140B178B17831299
:100AF8000313101408008312031387118801871544
:100B08000530F4000030F5000A128A11CF240A12C9
:100B18008A1183120313871108008316031787119C
:100B2800831603139A011815813099008312031351
:100B380098171816831603139816181208007E08BB
:100B48008A007F088200A3250A128A118000840A7D
:100B580004087D0603190034FF0A0319FE0AA72DAD
:100B680083120313B9000A128A1110260A128A1175
:100B78008312031339080A128A1103240A128A11EC
:100B8800080083120313B6003608F6007608F5004D
:100B980001300A128A1166220A128A110800F60028
:100BA80076080A128A11E1250A128A110A128A1194
:100BB80009250A128A11E02D0800F400E32D83129A
:100BC80003130C1EE82DE92DE32DEA2D7408990076
:100BD8000800F4007418F12DF52D8312031308147E
:100BE800F82D8312031308100800F4007418FD2D63
:100BF800012E831203130915042E831203130911FE
:100C08000800C030F6007608F50000300A128A1194
:100C180066220A128A110800F5010314F50D003046
:100C28000A128A1166220A128A11080050346134A5
:100C380073347334653464342134003464008001BF
:100C4800840A0406031900340406232EF4008312D0
:100C5800031308080F39740488000800831203136B
:080C68000C108617080001348E
:02400E00E22CA2
:00000001FF
