:060000000A128A11122809
:10000800FE000308F0000408F1000A08F200831259
:1000180003137F08F3000A128A15442F0A128A1163
:10002800AB2F00308A000408840A82070034203489
:1000380043347934743472346F346E3420340A346F
:100048002034203454346534633468340034203424
:1000580075347334653420340A344A346F3479344F
:100068004C344A346F3479345234003420345034A8
:10007800523445345334533420340A3420345334FE
:100088005434413452345434003462347234693450
:1000980067346834743432342034003462346C3455
:1000A800653466347434323420340034723469343C
:1000B80067346834743420340034733474346F34DF
:1000C8007034203400346C3465346634743420342D
:1000D800003466346F3472347734203400342B346F
:1000E8002B342B34203400342D342D342D3420344B
:1000F8000034723465347634203400340310003010
:100108000318013083120313BF000A128A155B27F4
:100118000A128A110A128A15A7270A128A110A12C4
:100128008A1532270A128A110A128A1520270A12FA
:100138008A110A128A1572270A128A110A128A115A
:10014800EC270A128A110A128A11F2250A128A1158
:1001580083120313B4010314B40D03100030031801
:100168000130B5000030B6000030B70001300A1287
:100178008A11D4260A128A1183120313B4010314B4
:10018800B40DB5010314B50D0030B6000030B7004A
:1001980002300A128A11D4260A128A1101300A1270
:1001A8008A15FE260A128A1102300A128A11862737
:1001B8000A128A11E830F4000330F5000A128A1591
:1001C800C4270A128A1120300A128A15FE260A123A
:1001D8008A11EF28EF2803300A128A15E2260A123C
:1001E8008A11013A0319F928FA28EF28FB28113057
:1001F8000A128A15FE260A128A1100308312031386
:10020800AA000030AB00082913300A128A15E2262A
:100218000A128A1183120313BE0032303E020318F9
:1002280016291729482959300A128A15FE260A1252
:100238008A111F291F2913300A128A15E2260A1269
:100248008A1183120313BE0032303E02031C2D298B
:100258002E291F292F2903302B06031D3529E830A5
:100268002A06031D382939293E29E830AA00033017
:10027800AB0008292A08643EAA002B080318013E8F
:10028800003EAB000829082913300A128A15E22615
:100298000A128A1183120313BE00C9303E02031CDE
:1002A8005629572984295E300A128A15FE260A1211
:1002B8008A115F295F2913300A128A15E2260A1269
:1002C8008A1183120313BE00C9303E0203186D2938
:1002D8006E295F296F292B082A04031D74297529A3
:1002E8007A290030AA000030AB0008292A089C3E71
:1002F800AA002B080318013EFF3EAB000829082975
:1003080002300A128A15E2260A128A110038031DE1
:100318008E298F299629C83083120313AA0000302A
:10032800AB00082911300A128A15E2260A128A112E
:1003380083120313BE0032303E020318A429A529F4
:10034800F62910300A128A15E2260A128A11831237
:100358000313BE0087303E020318B329B429F629D7
:1003680010300A128A15E2260A128A118312031320
:10037800BE006F303E02031CC229C329F629533040
:100388000A128A15FE260A128A1103100030031871
:10039800013083120313BA00BB010314BB0D2B08F1
:1003A800BD01BD072A08BC01BC0701300A128A1129
:1003B80065260A128A1103100030031801308312CF
:1003C8000313BA00BB010314BB0D2B08BD01BD0705
:1003D8002A08BC01BC0702300A128A1165260A12D3
:1003E8008A11082911300A128A15E2260A128A117E
:1003F80083120313BE0097303E02031C042A052A09
:100408005A2A10300A128A15E2260A128A11831211
:100418000313BE0096303E020318132A142A5A2AE0
:1004280010300A128A15E2260A128A11831203135F
:10043800BE0065303E02031C222A232A5A2A633052
:100448000A128A15FE260A128A11031000300318B0
:10045800013083120313BA0003100030031801306F
:10046800BB002B08BD01BD072A08BC01BC07013031
:100478000A128A1165260A128A110310003003181D
:10048800013083120313BA0003100030031801303F
:10049800BB002B08BD01BD072A08BC01BC07023000
:1004A8000A128A1165260A128A11082911300A12BD
:1004B8008A15E2260A128A1183120313BE006430D9
:1004C8003E020318682A692ABC2A10300A128A15C3
:1004D800E2260A128A1183120313BE0064303E0218
:1004E8000318772A782ABC2A4D300A128A15FE2664
:1004F8000A128A1103100030031801308312031303
:10050800BA00BB010314BB0D0230B2000030B300C7
:100518002B08B501B5072A08B401B4070A128A11D5
:1005280077250A128A11831203133308BD01BD0708
:100538003208BC01BC0701300A128A1165260A126A
:100548008A11031000300318013083120313BA0014
:10055800BB010314BB0D2B08BD01BD072A08BC0154
:10056800BC0702300A128A1165260A128A11082964
:1005780011300A128A15E2260A128A11831203130D
:10058800BE0064303E020318CA2ACB2A1E2B103044
:100598000A128A15E2260A128A1183120313BE0070
:1005A80097303E02031CD92ADA2A1E2B40300A1241
:1005B8008A15FE260A128A1103100030031801302A
:1005C80083120313BA00BB010314BB0D2B08BD0132
:1005D800BD072A08BC01BC0701300A128A1165262A
:1005E8000A128A1103100030031801308312031312
:1005F800BA00BB010314BB0D0230B2000030B300D7
:100608002B08B501B5072A08B401B4070A128A11E4
:1006180077250A128A11831203133308BD01BD0717
:100628003208BC01BC0702300A128A1165260A1278
:100638008A11082910300A128A15E2260A128A112C
:100648000038031D282B292B6D2B39300A128A15E7
:10065800FE260A128A110310003003180130831293
:100668000313BA00BB010314BB0D0330B200003002
:10067800B3002B08B501B5072A08B401B4070A125C
:100688008A1177250A128A11831203133308BD01D0
:10069800BD073208BC01BC0701300A128A11652661
:1006A8000A128A1103100030031801308312031351
:1006B800BA00BB010314BB0D2B08BD01BD072A08F6
:1006C800BC01BC0702300A128A1165260A128A1177
:1006D800082910300A128A15E2260A128A11FF3AEE
:1006E800031D772B782BBC2B30300A128A15FE2677
:1006F8000A128A1103100030031801308312031301
:10070800BA00BB010314BB0D2B08BD01BD072A08A5
:10071800BC01BC0701300A128A1165260A128A1127
:10072800031000300318013083120313BA00BB0111
:100738000314BB0D0330B2000030B3002B08B50121
:10074800B5072A08B401B4070A128A1177250A12D4
:100758008A11831203133308BD01BD073208BC0197
:10076800BC0702300A128A1165260A128A11082962
:1007780011300A128A15E2260A128A11831203130B
:10078800BE008D303E02031CCA2BCB2B222C10300E
:100798000A128A15E2260A128A1183120313BE006E
:1007A80064303E020318D92BDA2B222C38300A1277
:1007B8008A15FE260A128A11031000300318013028
:1007C80083120313BA000310003003180130BB0072
:1007D8000230B2000030B3002B08B501B5072A0873
:1007E800B401B4070A128A1177250A128A118312F2
:1007F80003133308BD01BD073208BC01BC07013033
:100808000A128A1165260A128A1103100030031889
:10081800013083120313BA000310003003180130AB
:10082800BB002B08BD01BD072A08BC01BC0702306C
:100838000A128A1165260A128A11082911300A1229
:100848008A15E2260A128A1183120313BE008D301C
:100858003E02031C302C312C882C10300A128A15C9
:10086800E2260A128A1183120313BE0097303E0251
:10087800031C3F2C402C882C2F300A128A15FE2688
:100888000A128A110310003003180130831203136F
:10089800BA000310003003180130BB002B08BD015B
:1008A800BD072A08BC01BC0701300A128A11652657
:1008B8000A128A110310003003180130831203133F
:1008C800BA000310003003180130BB000230B20038
:1008D8000030B3002B08B501B5072A08B401B407E6
:1008E8000A128A1177250A128A1183120313330810
:1008F800BD01BD073208BC01BC0702300A128A11CB
:1009080065260A128A11082947300A128A15FE2616
:100918000A128A1183120313BA010314BA0D0310C1
:10092800003003180130BB000030BC000030BD00AF
:1009380001300A128A1165260A128A1183120313DA
:10094800BA010314BA0D0310003003180130BB00BC
:100958000030BC000030BD0002300A128A11652642
:100968000A128A11082908290829082908290829A2
:100978000829082908290829082908290829C42C28
:10098800C42C0A128A11122883120313B50003100B
:10099800003003180130B4000808B2003208B4006F
:1009A8007908013A031DD92CDA2C432D35080A128F
:1009B8008A15D6260A128A117508F0390A128A157C
:1009C80091260A128A1100300A128A15CA260A12BA
:1009D8008A110D3083120313B300FB30B200B20B3F
:1009E800F32CB30BF32CF82C01300A128A15CA2603
:1009F8000A128A11073083120313B3007D30B20044
:100A0800B20B042DB30B042D8312031335080A12FD
:100A18008A15D6260A128A11750883120313B200A2
:100A280003300310B20DFF3E031D152D0310320DC8
:100A38000A128A1591260A128A1100300A128A159A
:100A4800CA260A128A110D3083120313B300FB3031
:100A5800B200B20B2D2DB30B2D2D322D01300A1201
:100A68008A15CA260A128A11073083120313B300A3
:100A78007D30B200B20B3E2DB30B3E2D722D83128A
:100A8800031335080A128A15D6260A128A11750820
:100A98000A128A1591260A128A1100300A128A153A
:100AA800CA260A128A110D3083120313B300FB30D1
:100AB800B200B20B5D2DB30B5D2D622D01300A1211
:100AC8008A15CA260A128A11073083120313B30043
:100AD8007D30B200B20B6E2DB30B6E2D8312031353
:100AE800340888000800031000300318013083120E
:100AF8000313B700B31F812D822D8B2DB209B309C3
:100B0800B20A0319B30AB7010314B70D8B2DB51F29
:100B18008E2D8F2D982DB409B509B40A0319B50A7D
:100B28000130F4007408B7060030B8000030B9008E
:100B3800330832040319A12DA22DE02DB6010314A8
:100B4800B60DB22D01300310B20DB30DFF3E031DDB
:100B5800A72D0130F4007408B607B22DB31FB52DC8
:100B6800B62DA62DB82DB82D01300310B80DB90D2E
:100B7800FF3E031DB92D33083502031DC52D32086C
:100B88003402031CC82DC92DD12D3208B4023308F4
:100B9800031CB503B5023814D12D01300310B30C72
:100BA800B20CFF3E031DD22D0130B602031DDD2D10
:100BB800DE2DB82DE02DE02D3708031DE42DEA2D9C
:100BC800B809B909B80A0319B90AEA2D3908B301ED
:100BD800B3073808B201B207F12D080001300A1234
:100BE8008A15CA260A128A11623083120313B700C3
:100BF8006530B600B60BFE2DB70BFE2D032E031085
:100C0800003003180130F900383083120313B6009E
:100C18003608F50000300A128A11C8240A128A110F
:100C2800383083120313B6003608F50000300A1274
:100C38008A11C8240A128A11383083120313B600A5
:100C48003608F50000300A128A11C8240A128A11DF
:100C5800283083120313B6003608F50000300A1254
:100C68008A11C8240A128A11F9010314F90D2830CF
:100C780083120313B6003608F50000300A128A11F1
:100C8800C8240A128A11063083120313B6003608E4
:100C9800F50000300A128A11C8240A128A110C3091
:100CA80083120313B6003608F50000300A128A11C1
:100CB800C8240A128A110A128A15A9260A128A1148
:100CC8000800F6007608013A031D6B2E6C2E9C2E48
:100CD80083120313BA08031D722E732E862EBB08C7
:100CE800031D772E782E7B2E09108914902E3B0831
:100CF800013A031D802E812E902E09148910902E02
:100D0800902E902E3A08013A031D8B2E8C2E902E91
:100D180009108910902E902E3D08F501F5073C0822
:100D2800F401F4070A128A15E1270A128A11D32E50
:100D38007608023A031DA12EA22ED32E8312031386
:100D4800BA08031DA82EA92EBC2EBB08031DAD2E64
:100D5800AE2EB12E07128716C62E3B08013A031D88
:100D6800B62EB72EC62E07168712C62EC62EC62E2C
:100D78003A08013A031DC12EC22EC62E0712871249
:100D8800C62EC62E3D08F501F5073C08F401F40708
:100D98000A128A11CD270A128A11D32ED32E0800DF
:100DA800F6007608013A031DDA2EDB2E092F83128E
:100DB8000313B408031DE12EE22EE42E0910ED2ED4
:100DC8003408013A031DE92EEA2EED2E0914ED2E02
:100DD800ED2EB508031DF12EF22EF42E8914FD2EEA
:100DE8003508013A031DF92EFA2EFD2E8910FD2E25
:100DF800FD2E3708F501F5073608F401F4070A1245
:100E08008A15E1270A128A113E2F7608023A031D35
:100E18000E2F0F2F3E2F83120313B408031D152F17
:100E2800162F182F0712212F3408013A031D1D2FE2
:100E38001E2F212F0716212F212FB508031D252F1F
:100E4800262F282F8716312F3508013A031D2D2FFD
:100E58002E2F312F8712312F312F3708F501F50743
:100E68003608F401F4070A128A11CD270A128A11EA
:100E78003E2F3E2F080083120313B800782F38083E
:100E880084000A128A1115200A128A110A3A0319D3
:100E98004E2F4F2F5C2F380884000A128A11152014
:100EA8000A128A110D3A031D5A2F5B2F622F5C2FED
:100EB8000A128A15B3260A128A11712F8312031394
:100EC800380884000A128A1115200A128A110A1297
:100ED8008A15F0260A128A11712F01308312031322
:100EE800B7003708B807782F380884000A128A1123
:100EF80015200A128A110038031D832F842F432FCF
:100F0800852F0800F600A12F8312031386173230AD
:100F1800F4000030F5000A128A15C4270A128A1153
:100F28008312031386133230F4000030F5000A12DE
:100F38008A15C4270A128A11A12F0130F6027608F1
:100F4800FF3A031DA82FA92F882FAA2F0800F70101
:100F5800F80183132030840032300A128A1599264A
:100F68000A128A114830FD000E30FE00A130FF0041
:100F7800403084000A128A1513270A128A110A12AD
:100F88008A11FF270A128A11F90083010A128A11AD
:100F98008228740883120313B20004300310B20DC0
:100FA800FF3E031DD22F30303205B3001D08CF3964
:100FB80033049D007508B3007408B20002300310B2
:100FC800B30CB20CFF3E031DE32F32089B00080050
:100FD800831203138E018F01901190141012901236
:100FE80010110C10831603130C140B178B17831294
:080FF80003131014080001347A
:101D1800831203130C1086170800F40083120313B0
:101D280008080F3974048800080064008001840AD8
:101D380004060319003404069A2E503461347334AF
:101D480073346534643421340034F5010314F50D1B
:101D580000300A128A11C8240A128A150800C030F5
:101D6800F6007608F50000300A128A11C8240A1213
:101D78008A150800F400C02E831203130C1EC52E0A
:101D8800C62EC02EC72E740899000800F4007418D7
:101D9800CE2ED22E831203130915D52E83120313C8
:101DA80009110800F4007418DA2EDE2E83120313CA
:101DB8000814E12E8312031308100800F6007608B1
:101DC8000A128A15BE260A128A150A128A158C2743
:101DD8000A128A15EF2E080083120313B60036087C
:101DE800F6007608F50001300A128A11C8240A1292
:101DF8008A15080083120313B9000A128A15A92646
:101E08000A128A158312031339080A128A113F2706
:101E18000A128A1508007E088A007F0882000F27A8
:101E28000A128A158000840A04087D060319003402
:101E3800FF0A0319FE0A132F831603178711831647
:101E480003139A0118158130990083120313981708
:101E58001816831603139816181208008312031312
:101E68008711880187150530F4000030F5000A1243
:101E78008A15C4270A128A158312031387110800CA
:101E88000C1C472F482F4E2F0A128A158C260A122F
:101E98008A154E2F730883120313FF0072088A00F5
:101EA8007108840070088300FE0E7E0E09008316F8
:101EB80003130F178F160F1683120313850186015C
:101EC800870188018901BF308316031385003F30DD
:101ED800860081308700880189010800FF30831659
:101EE80003139200831203139210121495019B019D
:101EF800121597131713971217129715171597108E
:101F080017109D121D129D151D159D101D100800FE
:101F18000310003003180130F50083120313981CD6
:101F2800962F972F9F2F181218161A08F400740866
:101F3800F5009F2F9F2F8C1EA22FA32F9F2FA42F1A
:101F48001A08A62F0800831203139F171F1383165E
:101F5800031708148810081188110812881208132A
:101F68008813091089100911891109128912831619
:101F780003139F179F121F12831203131F100800C9
:101F8800CF2F073083120313B3007D30B200B20B9A
:101F9800CB2FB30BCB2F0130F4020030031CF50319
:101FA800F502FF307506031DDB2FFF307406031D95
:101FB800DE2FDF2FC52FE02F0800740883120313CC
:101FC800B20004300310B20DFF3E031DE62F30307F
:101FD8003205B3001708CF39330497007508B300EA
:101FE8007408B20002300310B30CB20CFF3E031D9C
:081FF800F72F320895000800E4
:02400E00E22CA2
:00000001FF
